:020000040800F2
:100000000000022021420008554100086341000819
:10001000694100086F4100087541000800000000B8
:100020000000000000000000000000007B4100080C
:10003000894100080000000097410008A541000820
:1000400071420008714200087142000871420008C4
:1000500071420008714200087142000871420008B4
:1000600071420008714200087142000871420008A4
:100070007142000871420008714200087142000894
:100080007142000871420008714200087142000884
:100090007142000871420008714200087142000874
:1000A0007142000871420008714200087142000864
:1000B0007142000871420008714200087142000854
:1000C0007142000871420008714200087142000844
:1000D0007142000871420008714200087142000834
:1000E0007142000871420008714200087142000824
:1000F0007142000871420008714200087142000814
:100100007142000871420008714200087142000803
:1001100071420008714200087142000871420008F3
:1001200071420008714200087142000871420008E3
:100130007142000800000000000000007142000849
:1001400071420008714200087142000871420008C3
:1001500071420008714200087142000871420008B3
:1001600071420008714200087142000871420008A3
:10017000714200087142000871420008000000004E
:1001800000000000714200080000000000000000B4
:1001900071420008000000000000000071420008E9
:1001A0000000000000000000000000007142000894
:1001B0007142000871420008714200087142000853
:0401C0007142000880
:1001C40010B5054C237833B9044B13B10448AFF38D
:1001D40000800123237010BD0C00002000000000EB
:1001E400BC42000808B5034B1BB103490348AFF3F5
:1001F400008008BD0000000010000020BC42000880
:1002040053B94AB9002908BF00281CBF4FF0FF3179
:100214004FF0FF3000F072B9ADF1080C6DE904CE77
:1002240000F006F8DDF804E0DDE9022304B07047CD
:100234002DE9F047089E04468846002B4BD18A429C
:10024400154667D9B2FA82F24AB1C2F1200701FA1F
:1002540002F320FA07F7954047EA030894404FEA6F
:10026400154E230CB8FBFEF71FFA85FC0EFB17880E
:1002740043EA084307FB0CF1994209D9EB1807F14B
:10028400FF3080F01B81994240F21881023F2B44D9
:100294005B1AA4B2B3FBFEF00EFB103344EA034432
:1002A40000FB0CFCA44509D92C1900F1FF3380F0A4
:1002B4000781A44540F2048102382C4440EA0740F7
:1002C400A4EB0C0400271EB1D4400023C6E900436C
:1002D4003946BDE8F0878B4209D9002E00F0EB8047
:1002E4000027C6E9000138463946BDE8F087B3FA6D
:1002F40083F7002F47D18B4202D3824200F2FA8067
:10030400841A61EB030301209846002EE0D0C6E96D
:100314000048DDE702B9FFDEB2FA82F2002A40F0BB
:100324008F80491B4FEA154E1FFA85F80127B1FB50
:10033400FEFC230C0EFB1C1143EA014308FB0CF1E9
:10034400994207D9EB180CF1FF3002D2994200F21E
:10035400CD808446591AA3B2B1FBFEF00EFB1014F3
:1003640043EA044408FB00F8A04507D92C1900F11E
:10037400FF3302D2A04500F2B6801846A4EB08046D
:1003840040EA0C409FE7C7F1200CBB4022FA0CFE68
:100394004EEA030E01FA07F420FA0CF521FA0CF3E5
:1003A4004FEA1E482543B3FBF8F92C0C08FB19331C
:1003B4001FFA8EFA44EA034309FB0AF49C4202FA48
:1003C40007F200FA07F10BD91EEB030309F1FF3022
:1003D40080F087809C4240F28480A9F10209734432
:1003E4001B1BADB2B3FBF8F008FB103345EA034422
:1003F40000FB0AFAA24508D91EEB040400F1FF33FE
:100404006BD2A24569D90238744440EA0940A0FB82
:100414000289A4EB0A044C45C2464B4654D351D03E
:10042400002E69D0B1EB0A0564EB030404FA0CFC5A
:10043400FD40FC404CEA0505C6E90054002747E7A7
:10044400C2F1200320FA03F7954001FA02F021FAE1
:1004540003F34FEA154E3843010CB3FBFEF71FFAC2
:1004640085F80EFB173341EA034107FB08F38B427F
:1004740004FA02F407D9691807F1FF3C2FD28B4222
:100484002DD9023F2944CB1A81B2B3FBFEF00EFBF7
:10049400103341EA034100FB08F38B4207D9691882
:1004A40000F1FF3C17D28B4215D902382944C91AEE
:1004B40040EA07473BE73746304609E70746E7E6A1
:1004C4001846FBE64145ABD2B8EB020A69EB0E02D3
:1004D40001381346A4E76046E9E7184695E76746FE
:1004E400D1E781467CE702382C4447E7ACF1020CA3
:1004F4002B442FE7384608E73746E9E6704700BF44
:1005040080B500AF0E4B1B680D4A43F400731360B3
:100514000B4B1B680A4A43F480631360084B1B6847
:10052400074A43F480731360032000F093FB002018
:1005340000F008F803F066FB0023184680BD00BFF6
:10054400003C024080B582B000AF7860124B1A685C
:10055400124B1B7819464FF47A73B3FBF1F3B2FBD9
:10056400F3F3184600F09DFB0346002B01D0012352
:100574000EE07B680F2B0AD8002279684FF0FF3019
:1005840000F073FB064A7B681360002300E001233C
:1005940018460837BD4680BD08000020040000202E
:1005A4000000002080B400AF064B1B781A46064BAF
:1005B4001B681344044A136000BFBD465DF8047B06
:1005C400704700BF040000203400002080B400AF56
:1005D400034B1B681846BD465DF8047B704700BF9B
:1005E4003400002080B584B000AF7860FFF7EEFFE0
:1005F400B8607B68FB60FB68B3F1FF3F05D0094B33
:100604001B781A46FB681344FB6000BFFFF7DEFF4C
:100614000246BB68D31AFA689A42F7D800BF10376B
:10062400BD4680BD0400002080B584B000AF786072
:100634000023FB737B68002B01D1012333E07B682B
:100644001B6C002B09D17B6800225A647B68002252
:1006540083F83C20786803F027FB7B681B6C03F06D
:100664001003002B18D17B681B6C23F4885323F0F0
:10067400020343F002027B681A64786800F03EF9D2
:100684007B6800225A647B681B6C23F0030343F0ED
:1006940001027B681A6401E00123FB737B6800227A
:1006A40083F83C20FB7B18461037BD4680BD000014
:1006B40080B485B000AF786039600023BB607B688C
:1006C40093F83C30012B01D1022307E17B6801221E
:1006D40083F83C203B681B68092B25D97B681B6881
:1006E400D9683B681B689BB21A4613465B001344E7
:1006F4001E3B072202FA03F3DA437B681B680A40B5
:10070400DA607B681B68D9683B689A683B681B6839
:100714009BB2184603465B0003441E3B9A407B6829
:100724001B680A43DA6022E07B681B6819693B682E
:100734001B689BB21A4613465B001344072202FA55
:1007440003F3DA437B681B680A401A617B681B6801
:1007540019693B689A683B681B689BB21846034654
:100764005B0003449A407B681B680A431A613B6838
:100774005B68062B24D87B681B68596B3B685A68F6
:1007840013469B001344053B1F2202FA03F3DA438A
:100794007B681B680A405A637B681B68596B3B681B
:1007A4001B689BB218463B685A6813469B00134467
:1007B400053B00FA03F27B681B680A435A634CE06A
:1007C4003B685B680C2B24D87B681B68196B3B68FF
:1007D4005A6813469B001344233B1F2202FA03F377
:1007E400DA437B681B680A401A637B681B68196BD1
:1007F4003B681B689BB218463B685A6813469B00CB
:100804001344233B00FA03F27B681B680A431A6310
:1008140023E07B681B68D96A3B685A6813469B00CF
:100824001344413B1F2202FA03F3DA437B681B683B
:100834000A40DA627B681B68D96A3B681B689BB212
:1008440018463B685A6813469B001344413B00FA20
:1008540003F27B681B680A43DA62234BFB607B6804
:100864001B68224A934209D13B681B68122B05D1AD
:10087400FB685B6843F48002FB685A607B681B6812
:100884001A4A934225D13B681B68194A934203D004
:100894003B681B68112B1CD1FB685B6843F40002A6
:1008A400FB685A603B681B68114A934211D1114B93
:1008B4001B68114AA2FB03239A0C13469B001344A2
:1008C4005B00BB6002E0BB68013BBB60BB68002B04
:1008D400F9D17B68002283F83C20002318461437A2
:1008E400BD465DF8047B70470023014000200140B1
:1008F400120000100800002083DE1B4380B485B082
:1009040000AF7860784BFB60FB685B6823F440328F
:10091400FB685A60FB685A687B685B681A43FB682B
:100924005A607B681B685A687B681B6822F4807273
:100934005A607B681B6859687B681B691A027B686C
:100944001B680A435A607B681B685A687B681B688B
:1009540022F040725A607B681B6859687B689A6809
:100964007B681B680A435A607B681B689A687B68CB
:100974001B6822F400629A607B681B6899687B6834
:10098400DA687B681B680A439A607B689B6A574AEB
:10099400934222D07B681B689A687B681B6822F0AC
:1009A40070629A607B681B6899687B689A6A7B6846
:1009B4001B680A439A607B681B689A687B681B689B
:1009C40022F040529A607B681B6899687B68DA6AF7
:1009D4007B681B680A439A600FE07B681B689A680F
:1009E4007B681B6822F070629A607B681B689A6857
:1009F4007B681B6822F040529A607B681B689A6887
:100A04007B681B6822F002029A607B681B68996805
:100A14007B689B695A007B681B680A439A607B6801
:100A24001B6A002B1BD07B681B685A687B681B6899
:100A340042F400625A607B681B685A687B681B68D2
:100A440022F460425A607B681B6859687B685B6A61
:100A5400013B5A037B681B680A435A6007E07B68C2
:100A64001B685A687B681B6822F400625A607B68C2
:100A74001B68DA6A7B681B6822F47002DA627B689E
:100A84001B68D96A7B68DB69013B1A057B681B68B4
:100A94000A43DA627B681B689A687B681B6822F4E5
:100AA40000729A607B681B6899687B681B6B5A02AA
:100AB4007B681B680A439A607B681B689A687B683A
:100AC4001B6822F480629A607B681B6899687B6863
:100AD4005B699A027B681B680A439A6000BF1437FB
:100AE400BD465DF8047B7047002301400100000F00
:100AF40080B485B000AF78607B6803F00703FB60C7
:100B04000C4BDB68BB60BA684FF6FF031340BB6055
:100B1400FB681A02BB68134343F0BF6343F400331A
:100B2400BB60044ABB68D36000BF1437BD465DF8A0
:100B3400047B704700ED00E080B400AF044BDB6839
:100B44001B0A03F007031846BD465DF8047B704793
:100B540000ED00E080B483B000AF03463960FB7160
:100B640097F90730002B0BDA3B68DAB20C49FB79B2
:100B740003F00F03043B1201D2B20B441A7609E0CE
:100B84003B68DAB2074997F907301201D2B20B4435
:100B940083F8002300BF0C37BD465DF8047B704723
:100BA40000ED00E000E100E080B489B000AFF8603F
:100BB400B9607A60FB6803F00703FB61FB69C3F16A
:100BC4000703042B28BF0423BB61FB690433062BF2
:100BD40002D9FB69033B00E000237B614FF0FF3245
:100BE400BB6902FA03F3DA43BB681A407B699A4093
:100BF4004FF0FF317B6901FA03F3D9437B680B4063
:100C0400134318462437BD465DF8047B7047000043
:100C140080B582B000AF78607B68013BB3F1807F20
:100C240001D301230FE00A4A7B68013B53600F2183
:100C34004FF0FF30FFF78EFF054B00229A60044B04
:100C440007221A60002318460837BD4680BD00BF3E
:100C540010E000E080B582B000AF78607868FFF7FC
:100C640047FF00BF0837BD4680BD80B586B000AFE2
:100C74000346B9607A60FB7300237B61FFF75CFF76
:100C840078617A68B9687869FFF78EFF024697F948
:100C94000F3011461846FFF75DFF00BF1837BD46F9
:100CA40080BD80B582B000AF78607868FFF7B0FF90
:100CB400034618460837BD4680BD000080B483B0A3
:100CC40000AF78607B68042B06D1094B1B68084A87
:100CD40043F00403136005E0054B1B68044A23F04A
:100CE4000403136000BF0C37BD465DF8047B7047F6
:100CF40010E000E080B500AF00F002F800BF80BD56
:100D040080B400AF00BFBD465DF8047B70470000AF
:100D140080B489B000AF7860396000237B61002320
:100D24003B610023BB610023FB6165E10122FB6998
:100D340002FA03F37B613B681B687A6913403B61E9
:100D44003A697B699A4240F054813B685B68022BA4
:100D540003D03B685B68122B23D1FB69DA087B68FC
:100D6400083253F82230BB61FB6903F007039B0090
:100D74000F2202FA03F3DB43BA691340BB613B68F9
:100D84001A69FB6903F007039B0002FA03F3BA69CB
:100D94001343BB61FB69DA087B680832B96943F81D
:100DA40022107B681B68BB61FB695B00032202FAAB
:100DB40003F3DB43BA691340BB613B685B6803F030
:100DC4000302FB695B0002FA03F3BA691343BB61D4
:100DD4007B68BA691A603B685B68012B0BD03B687F
:100DE4005B68022B07D03B685B68112B03D03B6820
:100DF4005B68122B30D17B689B68BB61FB695B002D
:100E0400032202FA03F3DB43BA691340BB613B6874
:100E1400DA68FB695B0002FA03F3BA691343BB6146
:100E24007B68BA699A607B685B68BB610122FB6975
:100E340002FA03F3DB43BA691340BB613B685B68A6
:100E44001B0903F00102FB6902FA03F3BA691343B5
:100E5400BB617B68BA695A607B68DB68BB61FB690C
:100E64005B00032202FA03F3DB43BA691340BB615C
:100E74003B689A68FB695B0002FA03F3BA6913439F
:100E8400BB617B68BA69DA603B685B6803F08053D6
:100E9400002B00F0AE800023FB605C4B5B6C5B4A74
:100EA40043F480435364594B5B6C03F48043FB600D
:100EB400FB68574AFB699B08023352F82330BB6135
:100EC400FB6903F003039B000F2202FA03F3DB43E5
:100ED400BA691340BB617B684E4A934225D07B6854
:100EE4004D4A93421FD07B684C4A934219D07B6889
:100EF4004B4A934213D07B684A4A93420DD07B6895
:100F0400494A934207D07B68484A934201D1062359
:100F14000CE007230AE0052308E0042306E003238A
:100F240004E0022302E0012300E00023FA6902F056
:100F3400030292009340BA691343BB613449FB69CD
:100F44009B080233BA6941F82320394B1B68BB6103
:100F54003B69DB43BA691340BB613B685B6803F4DC
:100F64008033002B03D0BA693B691343BB61304A19
:100F7400BB6913602E4B5B68BB613B69DB43BA6999
:100F84001340BB613B685B6803F40033002B03D060
:100F9400BA693B691343BB61254ABB695360244B5F
:100FA4009B68BB613B69DB43BA691340BB613B6827
:100FB4005B6803F48013002B03D0BA693B691343C5
:100FC400BB611B4ABB699360194BDB68BB613B691E
:100FD400DB43BA691340BB613B685B6803F40013ED
:100FE400002B03D0BA693B691343BB61104ABB6948
:100FF400D360FB690133FB61FB690F2B7FF696AE6F
:1010040000BF2437BD465DF8047B704700380240BA
:101014000038014000000240000402400008024081
:10102400000C02400010024000140240001802406C
:10103400003C014080B483B000AF78600B467B80F5
:1010440013467B707B78002B03D07A887B689A6187
:1010540003E07B881A047B689A6100BF0C37BD46A5
:101064005DF8047B7047000080B584B000AF786001
:101074000023FB600023BB607B68002B01D10123AC
:10108400C8E07B6893F83D30DBB2002B06D17B6867
:10109400002283F83C20786802F056FE7B68242204
:1010A40083F83D207B681B681A687B681B6822F004
:1010B40001021A6000F0A6F9B860BB68574AA2FBA7
:1010C40003239B0CFB607B681B68FA685A607B688F
:1010D4005B68534A934202D8FB68013309E0FB681A
:1010E4004FF4967202FB03F34E4AA2FB03239B09BF
:1010F40001337A68126813627B685B68484A9342DA
:1011040012D87B685B685B00BA68B2FBF3F3C3F385
:101114000B03032B06D97B685B685B00BA68B2FBE0
:10112400F3F345E0042343E07B689B68002B0FD175
:101134007B685A6813465B001344BA68B2FBF3F346
:10114400C3F30B03002B0CBF01230023DBB210E01D
:101154007B685A6813469B0013449A001344BA6888
:10116400B2FBF3F3C3F30B03002B0CBF01230023E7
:10117400DBB2002B01D001231AE07B689B68002BB3
:101184000AD17B685A6813465B001344BA68B2FB01
:10119400F3F343F400430BE07B685A6813469B0067
:1011A40013449A001344BA68B2FBF3F343F4404384
:1011B4007A681268D3617B68D9697B681A6A7B682C
:1011C4001B680A431A607B6819697B68DA687B6864
:1011D4001B680A439A607B6859697B689A697B68D3
:1011E4001B680A43DA607B681B681A687B681B68A3
:1011F40042F001021A607B6800221A647B68202294
:1012040083F83D207B6800221A637B68002283F800
:101214003E20002318461037BD4680BD83DE1B43A5
:10122400A0860100D34D621080B584B000AF786011
:1012340039607B68002B01D10123CAE0674B1B682E
:1012440003F00F033A689A420CD9644B3A68D2B25D
:101254001A70624B1B6803F00F033A689A4201D07C
:101264000123B6E07B681B6803F00203002B20D047
:101274007B681B6803F00403002B05D0584B9B6864
:10128400574A43F4E05393607B681B6803F00803F8
:10129400002B05D0524B9B68514A43F46043936042
:1012A4004F4B9B6823F0F0027B689B684C491343C7
:1012B4008B607B681B6803F00103002B44D07B68C0
:1012C4005B68012B07D1464B1B6803F40033002BEA
:1012D40019D101237DE07B685B68022B03D07B6816
:1012E4005B68032B07D13E4B1B6803F00073002B94
:1012F40009D101236DE03A4B1B6803F00203002B74
:1013040001D1012365E0364B9B6823F003027B681F
:101314005B68334913438B60FFF758F9F8600AE0C0
:10132400FFF754F90246FB68D31A41F2883293421C
:1013340001D903234DE02A4B9B6803F00C027B6820
:101344005B689B009A42EBD1244B1B6803F00F03AC
:101354003A689A420CD2214B3A68D2B21A701F4BA7
:101364001B6803F00F033A689A4201D0012330E06E
:101374007B681B6803F00403002B08D0184B9B68A0
:1013840023F4E0527B68DB68154913438B607B6868
:101394001B6803F00803002B09D0114B9B6823F44E
:1013A40060427B681B69DB000D4913438B6000F0CE
:1013B40051F801460A4B9B681B0903F00F03094AC5
:1013C400D35C21FA03F3084A13600020FFF7BAF84C
:1013D400002318461037BD4680BD00BF003C0240C4
:1013E40000380240E44200080800002080B400AF46
:1013F400034B1B681846BD465DF8047B704700BF6D
:101404000800002080B500AFFFF7F0FF0146054B50
:101414009B689B0A03F00703034AD35C21FA03F396
:10142400184680BD00380240F442000880B500AF81
:10143400FFF7DCFF0146054B9B685B0B03F00703DA
:10144400034AD35C21FA03F3184680BD00380240F6
:10145400F4420008F0B587B000AF0023FB6000231E
:101464007B610023BB6000237B6000233B61C64B90
:101474009B6803F00C030C2B00F27E8101A252F84E
:1014840023F000BFBD1400087D1700087D17000875
:101494007D170008C31400087D1700087D17000895
:1014A4007D170008C91400087D1700087D1700087F
:1014B4007D17000825160008B44B3B615FE1B44B6F
:1014C4003B615CE1B04B5B6803F03F03FB60AE4BF8
:1014D4005B6803F48003002B4AD0AB4B5B689B0929
:1014E4004FF0000440F2FF114FF0000203EA01053F
:1014F40004EA0206294632464FF000034FF0000486
:10150400540144EAD1644B0119462246491B62EB5B
:1015140006024FF000034FF00004940144EA916482
:101524008B015B1A64EB02044FF000014FF00002E0
:10153400E20042EA5372D9000B4614465B1944EBAD
:1015440006044FF000014FF00002620242EAD35257
:1015540059020B46144618462146FB684FF0000416
:101564001A462346FEF74CFE03460C467B6149E0CF
:10157400854B5B689B094FF0000440F2FF114FF06C
:10158400000203EA010504EA0206294632464FF046
:1015940000034FF00004540144EAD1644B0119469E
:1015A4002246491B62EB06024FF000034FF0000491
:1015B400940144EA91648B015B1A64EB02044FF0DA
:1015C40000014FF00002E20042EA5372D9000B46D8
:1015D40014465B1944EB06044FF000014FF000027F
:1015E400A20242EA935299020B4614461846214637
:1015F400FB684FF000041A462346FEF701FE03463B
:101604000C467B61604B5B681B0C03F003030133E6
:101614005B00BB607A69BB68B2FBF3F33B61AEE08D
:10162400594B5B6803F03F03FB60574B5B6803F463
:101634008003002B4AD0544B5B689B094FF0000495
:1016440040F2FF114FF0000203EA010504EA02062A
:10165400294632464FF000034FF00004540144EA97
:10166400D1644B0119462246491B62EB06024FF036
:1016740000034FF00004940144EA91648B015B1A67
:1016840064EB02044FF000014FF00002E20042EA72
:101694005372D9000B4614465B1944EB06044FF011
:1016A40000014FF00002620242EAD35259020B4693
:1016B400144618462146FB684FF000041A46234698
:1016C400FEF79EFD03460C467B6149E02E4B5B68AA
:1016D4009B094FF0000440F2FF114FF0000203EAAF
:1016E400010504EA0206294632464FF000034FF092
:1016F4000004540144EAD1644B0119462246491BB3
:1017040062EB06024FF000034FF00004940144EA38
:1017140091648B015B1A64EB02044FF000014FF0FB
:101724000002E20042EA5372D9000B4614465B19E8
:1017340044EB06044FF000014FF00002A20242EA1B
:10174400935299020B46144618462146FB684FF003
:1017540000041A462346FEF753FD03460C467B61FC
:10176400094B5B681B0F03F007037B607A697B6896
:10177400B2FBF3F33B6102E0044B3B6100BF3B6906
:1017840018461C37BD46F0BD003802400024F40062
:1017940000127A0080B586B000AF786000233B6108
:1017A4007B681B6803F00103002B00F08380954BDA
:1017B4009B6803F00C03042B19D0924B9B6803F035
:1017C4000C03082B06D18F4B5B6803F48003B3F53D
:1017D400800F0CD08B4B9B6803F00C030C2B12D1A5
:1017E400884B5B6803F48003B3F5800F0BD1854B02
:1017F4001B6803F40033002B5BD07B685B68002B11
:1018040057D1012316E27B685B68B3F5803F06D1AC
:101814007C4B1B687B4A43F4803313601DE07B6878
:101824005B68B3F5A02F0CD1764B1B68754A43F463
:1018340080231360734B1B68724A43F48033136034
:101844000BE0704B1B686F4A23F4803313606D4BBD
:101854001B686C4A23F4802313607B685B68002B4D
:1018640013D0FEF7B3FE386108E0FEF7AFFE024680
:101874003B69D31A642B01D90323DBE1614B1B6859
:1018840003F40033002BF0D014E0FEF79FFE386120
:1018940008E0FEF79BFE02463B69D31A642B01D98C
:1018A4000323C7E1574B1B6803F40033002BF0D12B
:1018B40000E000BF7B681B6803F00203002B6FD0BD
:1018C400504B9B6803F00C03002B17D04D4B9B68C7
:1018D40003F00C03082B05D14A4B5B6803F4800327
:1018E400002B0BD0474B9B6803F00C030C2B1CD133
:1018F400444B5B6803F48003002B16D1414B1B68F7
:1019040003F00203002B05D07B68DB68012B01D0B8
:1019140001238FE13B4B1B6823F0F8027B681B69B2
:10192400DB00384913430B603AE07B68DB68002B2B
:1019340020D0354B01221A60FEF748FE386108E0DA
:10194400FEF744FE02463B69D31A022B01D9032356
:1019540070E12C4B1B6803F00203002BF0D0294BE1
:101964001B6823F0F8027B681B69DB0025491343DD
:101974000B6015E0244B00221A60FEF727FE386145
:1019840008E0FEF723FE02463B69D31A022B01D975
:1019940003234FE11B4B1B6803F00203002BF0D120
:1019A4007B681B6803F00803002B37D07B685B69F6
:1019B400002B16D0154B01221A60FEF707FE386182
:1019C40008E0FEF703FE02463B69D31A022B01D955
:1019D40003232FE10B4B5B6F03F00203002BF0D0CA
:1019E4001CE00A4B00221A60FEF7F0FD38610FE09C
:1019F400FEF7ECFD02463B69D31A022B08D90323F8
:101A040018E100BF0038024000004742800E474200
:101A14008A4B5B6F03F00203002BE9D17B681B68E0
:101A240003F00403002B00F097800023FB75834B25
:101A34001B6C03F08053002B0FD10023FB607F4B02
:101A44001B6C7E4A43F0805313647C4B1B6C03F085
:101A54008053FB60FB680123FB75794B1B6803F41F
:101A64008073002B18D1764B1B68754A43F480733E
:101A74001360FEF7ABFD386108E0FEF7A7FD0246F0
:101A84003B69D31A022B01D90323D3E06C4B1B68A7
:101A940003F48073002BF0D07B689B68012B06D184
:101AA400664B1B6F654A43F0010313671CE07B68B8
:101AB4009B68052B0CD1614B1B6F604A43F00403F8
:101AC40013675E4B1B6F5D4A43F0010313670BE022
:101AD4005A4B1B6F594A23F001031367574B1B6F73
:101AE400564A23F0040313677B689B68002B15D0C8
:101AF400FEF76CFD38610AE0FEF768FD02463B69BB
:101B0400D31A41F28832934201D9032392E04B4B1A
:101B14001B6F03F00203002BEED014E0FEF756FD1A
:101B240038610AE0FEF752FD02463B69D31A41F2DE
:101B34008832934201D903237CE0404B1B6F03F0AE
:101B44000203002BEED1FB7D012B05D13B4B1B6C1B
:101B54003A4A23F0805313647B689B69002B68D056
:101B6400364B9B6803F00C03082B60D07B689B69A1
:101B7400022B45D1334B00221A60FEF727FD386152
:101B840008E0FEF723FD02463B69D31A022B01D974
:101B940003234FE0294B1B6803F00073002BF0D1A3
:101BA4007B68DA697B681B6A1A437B685B6A9B0102
:101BB4001A437B689B6A5B08013B1B041A437B68DE
:101BC400DB6A1B061A437B681B6B1B071B49134309
:101BD4004B601C4B01221A60FEF7F8FC386108E0E8
:101BE400FEF7F4FC02463B69D31A022B01D9032306
:101BF40020E0124B1B6803F00073002BF0D018E0B8
:101C0400104B00221A60FEF7E1FC386108E0FEF791
:101C1400DDFC02463B69D31A022B01D9032309E0F8
:101C2400064B1B6803F00073002BF0D101E0012385
:101C340000E0002318461837BD4680BD0038024036
:101C4400007000406000474280B582B000AF786009
:101C54007B68002B01D1012356E07B6800229A6245
:101C64007B6893F85130DBB2002B06D17B680022ED
:101C740083F85020786802F0BFF87B68022283F86A
:101C840051207B681B681A687B681B6822F040023D
:101C94001A607B685A687B689B681A437B68DB68B8
:101CA4001A437B681B691A437B685B691A437B6828
:101CB4009B6903F400731A437B68DB691A437B68EE
:101CC4001B6A42EA03017B689A6A7B681B680A43C1
:101CD4001A607B689B691B0C03F004017B685A6AD9
:101CE4007B681B680A435A607B681B68DA697B68F7
:101CF4001B6822F40062DA617B6800225A657B6803
:101D0400012283F85120002318460837BD4680BDC0
:101D140080B58CB002AFF860B9607A607B80002334
:101D2400FB610023BB6100237B6101237B620023F1
:101D340087F82330FB6893F85030012B01D102233C
:101D440082E1FB68012283F85020FEF73FFC7861B2
:101D5400FB6893F85130DBB2FB61FB685B68BB61E5
:101D6400FB69012B0ED0BB69B3F5827F06D1FB68FA
:101D74009B68002B02D1FB69042B03D0022387F854
:101D8400233057E1BB68002B05D07B68002B02D0C1
:101D94007B88002B03D1012387F823304AE1FB68B9
:101DA40093F85130DBB2012B03D1FB68052283F891
:101DB4005120FB6800225A65FB687A689A63FB68C5
:101DC4007A88DA87FB687A889A87FB68BA681A6324
:101DD400FB687A88DA86FB687A889A86FB68002230
:101DE4001A64FB6800225A64FB681B681B6803F0D2
:101DF4004003402B07D0FB681B681A68FB681B680C
:101E040042F040021A60FB68DB68B3F5006F71D1E1
:101E1400FB685B68002B04D0FB68DB8E9BB2012B54
:101E24005DD1BB681A88FB681B68DA60BB68023343
:101E3400BB60FB68DB8E9BB2013B9AB2FB68DA861F
:101E44004DE07B6A002B1CD0FB68DB8E9BB2002B21
:101E540017D0FB681B689B6803F00203022B10D1A8
:101E6400BB681A88FB681B68DA60BB680233BB6016
:101E7400FB68DB8E9BB2013B9AB2FB68DA860023D7
:101E84007B62FB68DB8F9BB2002B18D0FB681B685E
:101E94009B6803F00103012B11D1FB681B68DB680D
:101EA4009AB27B681A807B6802337B60FB68DB8FA5
:101EB4009BB2013B9AB2FB68DA8701237B623B6BDE
:101EC400B3F1FF3F0BD0FEF781FB02467B69D31AC7
:101ED4003A6B9A4203D8032387F82330AAE0FB68BD
:101EE400DB8E9BB2002BACD1FB68DB8F9BB2002B4B
:101EF400A7D170E0FB685B68002B04D0FB68DB8E25
:101F04009BB2012B5DD1FB681B680C33BA68127855
:101F14001A70BB680133BB60FB68DB8E9BB2013B6C
:101F24009AB2FB68DA864CE07B6A002B1CD0FB6813
:101F3400DB8E9BB2002B17D0FB681B689B6803F0F9
:101F44000203022B10D1BB685A1CBA60FA681268EB
:101F54000C321B781370FB68DB8E9BB2013B9AB288
:101F6400FB68DA8600237B62FB68DB8F9BB2002B65
:101F740017D0FB681B689B6803F00103012B10D189
:101F8400FB681B68D9687B685A1C7A60CAB21A70ED
:101F9400FB68DB8F9BB2013B9AB2FB68DA870123B3
:101FA4007B623B6BB3F1FF3F0BD0FEF70FFB0246A6
:101FB4007B69D31A3A6B9A4203D8032387F82330F8
:101FC40038E0FB68DB8E9BB2002BADD1FB68DB8F66
:101FD4009BB2002BA8D17B6900933B6B01220221A9
:101FE400F86800F035F80346002B03D0032387F884
:101FF40023301FE07A69396BF86800F092F80346E1
:10200400002B06D0012387F82330FB6820225A6571
:1020140010E0FB689B68002B0BD100233B61FB683D
:102024001B68DB683B61FB681B689B683B613B6921
:1020340000E000BFFB68012283F85120FB68002206
:1020440083F8502097F8233018462837BD4680BDC2
:1020540080B584B000AFF860B9607A603B604DE051
:102064003B68B3F1FF3F49D03B68002B07D0FEF734
:10207400ADFA0246BB69D31A3A689A423ED8FB6865
:102084001B685A68FB681B6822F0E0025A60FB6810
:102094005B68B3F5827F11D1FB689B68B3F5004F91
:1020A40004D0FB689B68B3F5806F07D1FB681B689D
:1020B4001A68FB681B6822F040021A60FB689B6A7E
:1020C400B3F5005F10D1FB681B681968FB681A68D8
:1020D4004DF6FF730B401360FB681B681A68FB68BE
:1020E4001B6842F400521A60FB68012283F85120F5
:1020F400FB68002283F8502003230EE0FB681B6872
:102104009A68BB681340BA689A4201D1012200E080
:1021140000227B689A42A3D1002318461037BD469B
:1021240080BD80B586B002AFF860B9607A607B6824
:102134000093BB6800228021F868FFF789FF0346FB
:10214400002B07D0FB685B6D43F02002FB685A65E7
:10215400032300E0002318461037BD4680BD80B538
:1021640082B000AF78607B68002B01D101231DE0B1
:102174007B6893F83930DBB2002B06D17B680022F0
:1021840083F83820786801F0B1FE7B68022283F876
:1021940039207B681A687B6804331946104600F0BE
:1021A400E1F97B68012283F83920002318460837B7
:1021B400BD4680BD80B582B000AF78607B68002BDF
:1021C40001D101231DE07B6893F83930DBB2002B89
:1021D40006D17B68002283F83820786800F015F86F
:1021E4007B68022283F839207B681A687B68043391
:1021F4001946104600F0B6F97B68012283F83920AD
:10220400002318460837BD4680BD80B483B000AFB4
:10221400786000BF0C37BD465DF8047B7047000052
:1022240080B584B000AFF860B9607A60FB6893F859
:102234003830012B01D10223B4E0FB68012283F87A
:102244003820FB68022283F839207B680C2B00F2CB
:102254009F8001A252F823F09122000895230008E0
:102264009523000895230008D1220008952300082F
:1022740095230008952300081323000895230008DC
:10228400952300089523000853230008FB681B6866
:10229400B968184600F088FAFB681B689A69FB68FD
:1022A4001B6842F008029A61FB681B689A69FB6824
:1022B4001B6822F004029A61FB681B689969BB6879
:1022C4001A69FB681B680A439A6162E0FB681B6831
:1022D400B968184600F0F0F9FB681B689A69FB6856
:1022E4001B6842F400629A61FB681B689A69FB6888
:1022F4001B6822F480629A61FB681B689969BB6859
:102304001B691A02FB681B680A439A6141E0FB6877
:102314001B68B968184600F0BBFAFB681B68DA69E9
:10232400FB681B6842F00802DA61FB681B68DA6923
:10233400FB681B6822F00402DA61FB681B68D96938
:10234400BB681A69FB681B680A43DA6121E0FB6811
:102354001B68B968184600F013FBFB681B68DA6950
:10236400FB681B6842F40062DA61FB681B68DA6987
:10237400FB681B6822F48062DA61FB681B68D96918
:10238400BB681B691A02FB681B680A43DA6100E038
:1023940000BFFB68012283F83920FB68002283F820
:1023A4003820002318461037BD4680BD80B584B060
:1023B40000AF786039600023FB607B6893F83830A5
:1023C400012B01D10223C8E07B68012283F8382065
:1023D4007B68022283F839207B681B689B68FB605A
:1023E400FB6823F07703FB60FB6823F47F43FB6007
:1023F4007B681B68FA689A603B681B68402B77D03F
:10240400402B0ED8102B00F08A80102B02D8002B02
:102414007ED099E0202B00F08980302B00F08D8055
:1024240092E0702B16D0702B04D8502B40D0602B28
:102434004ED089E0B3F5805F03D0B3F5005F24D0BC
:1024440082E07B681B689A687B681B6822F007023D
:102454009A6079E07B6818683B6899683B685A68B9
:102464003B68DB6800F073FB7B681B689B68FB6060
:10247400FB6823F07703FB60FB6843F07703FB60A2
:102484007B681B68FA689A605EE07B6818683B6842
:1024940099683B685A683B68DB6800F058FB7B68C6
:1024A4001B689A687B681B6842F480429A604BE020
:1024B4007B6818683B6859683B68DB681A4600F01B
:1024C400BFFA7B681B685021184600F020FB3BE0F4
:1024D4007B6818683B6859683B68DB681A4600F0FB
:1024E400E2FA7B681B686021184600F010FB2BE0C1
:1024F4007B6818683B6859683B68DB681A4600F0DB
:102504009FFA7B681B684021184600F000FB1BE023
:102514007B681B680021184600F0F9FA14E07B6818
:102524001B681021184600F0F2FA0DE07B681B6866
:102534002021184600F0EBFA06E07B681B68302186
:10254400184600F0E4FA00BF7B68012283F83920C2
:102554007B68002283F83820002318461037BD46D4
:1025640080BD000080B485B000AF7860396000237E
:10257400FB607B681B68FB607B68444A934213D012
:102584007B68B3F1804F0FD07B68414A93420BD0F4
:102594007B68404A934207D07B683F4A934203D00A
:1025A4007B683E4A934201D1012300E00023002BC3
:1025B40008D0FB6823F07003FB603B685B68FA6833
:1025C4001343FB607B68314A93422BD07B68B3F1A1
:1025D400804F27D07B682E4A934223D07B682D4AB4
:1025E40093421FD07B682C4A93421BD07B682B4AB2
:1025F400934217D07B682A4A934213D07B68294AB6
:1026040093420FD07B68284A93420BD07B68274AB9
:10261400934207D07B68264A934203D07B68254ABD
:10262400934201D1012300E00023002B08D0FB6872
:1026340023F44073FB603B68DB68FA681343FB6078
:102644007B68FA681A603B689A687B68DA623B6860
:102654001A687B689A627B680C4A934203D07B6851
:102664000E4A934201D1012300E00023002B03D042
:102674003B681A697B681A637B6801225A6100BF50
:102684001437BD465DF8047B704700BF000001406D
:102694000004004000080040000C00400004014019
:1026A400004001400044014000480140001800403F
:1026B400001C00400020004080B487B000AF786068
:1026C40039600023FB6000237B6100233B617B684E
:1026D4001B6A23F010027B681A627B681B6A7B61A9
:1026E4007B685B683B617B689B69FB60FB6823F4E8
:1026F400E043FB60FB6823F44073FB603B681B68AA
:102704001B02FA681343FB607B6923F020037B619F
:102714003B689B681B017A6913437B617B68204A91
:10272400934203D07B681F4A934201D1012300E006
:102734000023002B21D07B6923F080037B613B685D
:10274400DB681B017A6913437B617B6923F04003D7
:102754007B613B6923F480633B613B6923F4006341
:102764003B613B685B699B003A6913433B613B688F
:102774009B699B003A6913433B617B683A695A60E1
:102784007B68FA689A613B685A687B689A637B68DD
:102794007A691A6200BF1C37BD465DF8047B704736
:1027A400000001400004014080B487B000AF7860AD
:1027B40039600023FB6000237B6100233B617B685D
:1027C4001B6A23F001027B681A627B681B6A7B61C7
:1027D4007B685B683B617B689B69FB60FB6823F0FB
:1027E4007003FB60FB6823F00303FB603B681B681A
:1027F400FA681343FB607B6923F002037B613B6847
:102804009B687A6913437B617B681F4A934203D0B8
:102814007B681E4A934201D1012300E00023002B70
:102824001ED07B6923F008037B613B68DB687A690F
:1028340013437B617B6923F004037B613B6923F4CD
:1028440080733B613B6923F400733B613B685B69C4
:102854003A6913433B613B689B693A6913433B61A3
:102864007B683A695A607B68FA689A613B685A687F
:102874007B685A637B687A691A6200BF1C37BD465D
:102884005DF8047B704700BF000001400004014074
:1028940080B487B000AF786039600023FB60002308
:1028A4007B6100233B617B681B6A23F480727B6835
:1028B4001A627B681B6A7B617B685B683B617B682F
:1028C400DB69FB60FB6823F07003FB60FB6823F0AB
:1028D4000303FB603B681B68FA681343FB607B6976
:1028E40023F400737B613B689B681B027A69134382
:1028F4007B617B68204A934203D07B681F4A9342E2
:1029040001D1012300E00023002B21D07B6923F4B3
:1029140000637B613B68DB681B027A6913437B615C
:102924007B6923F480637B613B6923F480533B61BF
:102934003B6923F400533B613B685B691B013A69C3
:1029440013433B613B689B691B013A6913433B6139
:102954007B683A695A607B68FA68DA613B685A684E
:102964007B68DA637B687A691A6200BF1C37BD46EC
:102974005DF8047B704700BF000001400004014083
:1029840080B487B000AF7860396000233B610023D6
:10299400FB6000237B617B681B6A23F480527B68A5
:1029A4001A627B681B6AFB607B685B687B617B687F
:1029B400DB693B613B6923F4E0433B613B6923F4FE
:1029C40040733B613B681B681B023A6913433B61DC
:1029D400FB6823F40053FB603B689B681B03FA68A5
:1029E4001343FB607B68144A934203D07B68134A09
:1029F400934201D1012300E00023002B09D07B691D
:102A040023F480437B613B685B699B017A691343D0
:102A14007B617B687A695A607B683A69DA613B68F2
:102A24005A687B681A647B68FA681A6200BF1C37AC
:102A3400BD465DF8047B704700000140000401407E
:102A440080B487B000AFF860B9607A6000237B611E
:102A540000233B61FB681B6A3B61FB681B6A23F034
:102A64000102FB681A62FB689B697B617B6923F046
:102A7400F0037B617B681B017A6913437B613B69CB
:102A840023F00A033B613A69BB6813433B61FB686B
:102A94007A699A61FB683A691A6200BF1C37BD46BD
:102AA4005DF8047B704780B487B000AFF860B9600C
:102AB4007A6000237B6100233B61FB681B6A23F07F
:102AC4001002FB681A62FB689B697B61FB681B6AE6
:102AD4003B617B6923F470437B617B681B037A69E8
:102AE40013437B613B6923F0A0033B61BB681B017B
:102AF4003A6913433B61FB687A699A61FB683A69F6
:102B04001A6200BF1C37BD465DF8047B704780B471
:102B140085B000AF78600B467B800023FB607B6848
:102B24009B68FB60FB6823F07003FB607B8843F0C9
:102B340007039BB21A46FB681343FB607B68FA6881
:102B44009A6000BF1437BD465DF8047B704780B4BB
:102B540087B000AFF860B9607A603B6000237B61A6
:102B6400FB689B687B617B6923F47F437B613B68E3
:102B74001A027B681A43BB6813437A6913437B6167
:102B8400FB687A699A6000BF1C37BD465DF8047B18
:102B9400704780B483B000AF786039607B6893F885
:102BA4003830012B01D1022332E07B68012283F803
:102BB40038207B68022283F839207B681B685A68B6
:102BC4007B681B6822F070025A607B681B68596836
:102BD4003B681A687B681B680A435A607B681B68F9
:102BE4009A687B681B6822F080029A607B681B6885
:102BF40099683B685A687B681B680A439A607B68DB
:102C0400012283F839207B68002283F838200023CE
:102C140018460C37BD465DF8047B704780B485B018
:102C240000AF786039600023FB607B6893F838302C
:102C3400012B01D1022344E07B68012283F8382070
:102C4400FB6823F0FF023B68DB681343FB60FB680F
:102C540023F440723B689B681343FB60FB6823F4D6
:102C640080623B685B681343FB60FB6823F400628B
:102C74003B681B681343FB60FB6823F480523B688A
:102C84001B691343FB60FB6823F400523B685B69D8
:102C94001343FB60FB6823F480423B689B69134346
:102CA400FB60FB6823F400423B689B691343FB60B1
:102CB4007B681B68FA685A647B68002283F83820B2
:102CC400002318461437BD465DF8047B704780B571
:102CD40082B000AF78607B68002B01D101233FE014
:102CE4007B6893F83930DBB2002B06D17B68002275
:102CF40083F83820786801F099F97B68242283F8F6
:102D040039207B681B68DA687B681B6822F40052F0
:102D1400DA60786800F028F87B681B681A697B68B9
:102D24001B6822F490421A617B681B685A697B68AD
:102D34001B6822F02A025A617B681B68DA687B6888
:102D44001B6842F40052DA607B680022DA637B6815
:102D5400202283F839207B68202283F83A2000233C
:102D640018460837BD4680BDB0B584B000AF786062
:102D74000023FB607B681B681B69FB60FB6823F412
:102D84004053FB607B68DB68FA681343FB607B6835
:102D94001B68FA681A617B681B68DB68FB60FB6868
:102DA40023F4164323F00C03FB607B689A687B686A
:102DB4001B691A437B685B691A437B68DB691343AD
:102DC400FA681343FB607B681B68FA68DA607B6807
:102DD4001B685B69FB60FB6823F44073FB607B68E2
:102DE4009B69FA681343FB607B681B68FA685A6145
:102DF4007B68DB69B3F5004F40F0E4807B681B68B7
:102E0400AB4A934204D07B681B68AA4A93426CD1B4
:102E1400FEF70CFB024613469B0013449A001A4427
:102E24007B685B685B00B2FBF3F3A34AA2FB03235A
:102E34005B091C01FEF7FAFA024613469B00134491
:102E44009A001A447B685B685B00B2FBF3F5FEF7FB
:102E5400EDFA024613469B0013449A001A447B6819
:102E64005B685B00B2FBF3F3934AA2FB03235B09A9
:102E7400642202FB03F3EB1ADB0032338E4AA2FB1B
:102E840003235B095B0003F4F8731C44FEF7CEFADA
:102E9400024613469B0013449A001A447B685B68FD
:102EA4005B00B2FBF3F5FEF7C1FA024613469B0042
:102EB40013449A001A447B685B685B00B2FBF3F32B
:102EC4007D4AA2FB03235B09642202FB03F3EB1A92
:102ED400DB003233784AA2FB03235B0903F00702C9
:102EE4007B681B6822449A6054E1FEF78BFA024621
:102EF40013469B0013449A001A447B685B685B008A
:102F0400B2FBF3F36C4AA2FB03235B091C01FEF73B
:102F140079FA024613469B0013449A001A447B68CC
:102F24005B685B00B2FBF3F5FEF76CFA02461346EE
:102F34009B0013449A001A447B685B685B00B2FBF5
:102F4400F3F35D4AA2FB03235B09642202FB03F350
:102F5400EB1ADB003233584AA2FB03235B095B0004
:102F640003F4F8731C44FEF74DFA024613469B0023
:102F740013449A001A447B685B685B00B2FBF3F568
:102F8400FEF740FA024613469B0013449A001A4483
:102F94007B685B685B00B2FBF3F3474AA2FB032345
:102FA4005B09642202FB03F3EB1ADB003233424A6F
:102FB400A2FB03235B0903F007027B681B6822441E
:102FC4009A60E7E07B681B68394A934204D07B68C7
:102FD4001B68384A934271D1FEF728FA0246134619
:102FE4009B0013449A001A447B685B689B00B2FB05
:102FF400F3F3314AA2FB03235B091C01FEF716FA23
:10300400024613469B0013449A001A447B685B688B
:103014009B00B2FBF3F5FEF709FA024613469B0048
:1030240013449A001A447B685B689B00B2FBF3F379
:10303400214AA2FB03235B09642202FB03F3EB1A7C
:103044001B0132331C4AA2FB03235B0903F0F00388
:103054001C44FEF7EBF9024613469B0013449A0006
:103064001A447B685B689B00B2FBF3F5FEF7DEF95C
:10307400024613469B0013449A001A447B685B681B
:103084009B00B2FBF3F30C4AA2FB03235B0964220B
:1030940002FB03F3EB1A1B013233074AA2FB03239F
:1030A4005B0903F00F027B681B6822449A6071E09D
:1030B40000100140001401401F85EB51FEF7A2F9F6
:1030C400024613469B0013449A001A447B685B68CB
:1030D4009B00B2FBF3F3314AA2FB03235B091C01FF
:1030E400FEF790F9024613469B0013449A001A44D3
:1030F4007B685B689B00B2FBF3F5FEF783F902463D
:1031040013469B0013449A001A447B685B689B0037
:10311400B2FBF3F3214AA2FB03235B09642202FB03
:1031240003F3EB1A1B0132331C4AA2FB03235B0992
:1031340003F0F0031C44FEF765F9024613469B00B6
:1031440013449A001A447B685B689B00B2FBF3F556
:10315400FEF758F9024613469B0013449A001A449A
:103164007B685B689B00B2FBF3F30C4AA2FB03236E
:103174005B09642202FB03F3EB1A1B013233074A97
:10318400A2FB03235B0903F00F027B681B68224444
:103194009A60FFE700BF1037BD46B0BD1F85EB51F5
:1031A40080B500AFFDF7ACF900F026F800F01EFC86
:1031B40000F09CF800F0ECF800F03CF900F06EF937
:1031C40000F0A0F900F0DAF900F014FA00F0A8FA1F
:1031D40000F014FB00F080FB00F0ACFB00F0D8FB27
:1031E40001224FF400510348FDF724FF00F0CEFC08
:1031F400FCE700BF0004024080B594B000AF002398
:103204007B60364B1B6C354A43F080531364334B5D
:103214001B6C03F080537B607B6800233B60304B66
:103224001B6823F440432E4A43F4804313602C4B21
:103234001B6803F440433B603B680223FB610123AA
:10324400BB621023FB6202237B630023BB63102356
:10325400FB634FF4A8733B6404237B640223BB64C5
:103264000223FB6407F11C031846FEF793FA034696
:10327400002B03D0DF211B4800F0BEFC0F23BB60F2
:103284000223FB6000233B614FF480537B610023E6
:10329400BB6107F1080302211846FDF7C5FF034689
:1032A400002B03D0ED210F4800F0A6FCFEF79EF89A
:1032B40002460D4BA3FB02239B091846FDF7F1FCC4
:1032C4000420FDF7FBFC002200214FF0FF30FDF746
:1032D400CCFC00BF5037BD4680BD00BF0038024063
:1032E40000700040D4420008D34D621080B584B011
:1032F40000AF234B234A1A60214B4FF480325A60AB
:103304001F4B00229A601E4B00221A611C4B0022A4
:103314009A611B4B00221A62194B0022DA62184B85
:10332400194A9A62164B0022DA60154B0122DA61BF
:10333400134B00221A63124B01225A611048FDF705
:1033440073F90346002B04D04FF489710F4800F041
:1033540053FC04233B6001237B600023BB603B469A
:1033640019460748FDF7A4F90346002B04D04FF48F
:103374008E71064800F040FC00BF1037BD4680BD8A
:1033840074020020002001400100000FD442000814
:1033940080B584B000AF234B234A1A60214B4FF40D
:1033A40080325A601F4B00229A601E4B00221A6121
:1033B4001C4B00229A611B4B00221A62194B0022FB
:1033C400DA62184B194A9A62164B0022DA60154BDE
:1033D4000122DA61134B00221A63124B01225A6153
:1033E4001048FDF721F90346002B04D040F23711B1
:1033F4000F4800F001FC06233B6001237B6000239F
:10340400BB603B4619460748FDF752F90346002BBB
:1034140004D040F24111064800F0EEFB00BF103723
:10342400BD4680BD9C000020002101400100000F2A
:10343400D442000880B500AF144B154A1A60134BF0
:10344400144A5A60114B00229A60104B0022DA6031
:103454000E4B4FF480421A610C4B00225A610B4B05
:1034640000229A61094B0022DA61084B00221A6299
:103474000648FDF7F9FD0346002B04D040F2551130
:10348400054800F0B9FB00BF80BD00BFE400002088
:1034940000540040A0860100D442000880B500AF6B
:1034A400144B154A1A60134B144A5A60114B0022EC
:1034B4009A60104B0022DA600E4B4FF480421A617E
:1034C4000C4B00225A610B4B00229A61094B0022DB
:1034D400DA61084B00221A620648FDF7C5FD03466F
:1034E400002B04D040F26911054800F085FB00BFB1
:1034F40080BD00BF3801002000580040A0860100B4
:10350400D442000880B500AF194B1A4A1A60184B10
:103514004FF482725A60164B00229A60144B0022B8
:10352400DA60134B00221A61114B00225A61104BCE
:103534004FF400729A610E4B3022DA610C4B002278
:103544001A620B4B00225A62094B00229A62084B02
:103554000A22DA620648FEF777FB0346002B04D002
:103564004FF4C271044800F047FB00BF80BD00BFA8
:103574003C00002000380040D442000880B500AF71
:10358400194B1A4A1A60184B4FF482725A60164B40
:1035940000229A60144B0022DA60134B00221A6155
:1035A400114B00225A61104B4FF400729A610E4B7A
:1035B4000022DA610C4B00221A620B4B00225A6281
:1035C400094B00229A62084B0A22DA620648FEF787
:1035D4003BFB0346002B04D04FF4CE71044800F0AB
:1035E4000BFB00BF80BD00BFD8010020003C0040A1
:1035F400D442000880B594B000AF464B464A1A60E6
:10360400444BA8225A60434B00229A60414B42F239
:103614001072DA603F4B00221A613E4B00225A615D
:103624003C48FEF79CFD0346002B04D04FF4D971AF
:103634003A4800F0E1FA4FF480533B6407F1400349
:1036440019463448FEF7B2FE0346002B04D04FF46B
:10365400DC71324800F0D0FA2E48FEF7ABFD034689
:10366400002B04D040F2BD112C4800F0C5FA002311
:10367400BB630023FB6307F1380319462548FFF7B2
:1036840088FA0346002B04D04FF4E271234800F07B
:10369400B3FA6023FB6100233B6200237B620023B7
:1036A400BB620023FB6200233B6300237B6307F1BF
:1036B4001C03002219461748FEF7B2FD0346002BEF
:1036C40004D04FF4E871154800F096FA00233B60EB
:1036D40000237B600023BB600023FB6000233B616D
:1036E4004FF400537B610023BB613B4619460948F4
:1036F400FFF794FA0346002B04D04FF4EE71074809
:1037040000F07AFA034800F03DFC00BF5037BD4694
:1037140080BD00BFC802002000000140D442000860
:1037240080B58EB000AF334B4FF080421A60314BFE
:10373400A8225A602F4B00229A602E4B42F210723C
:10374400DA602C4B00221A612A48FEF708FD034672
:10375400002B04D04FF4F971274800F04DFA4FF4D0
:103764008053BB6207F1280319462248FEF71EFE68
:103774000346002B04D04FF4FC711F4800F03CFAC0
:103784001C48FEF717FD0346002B04D040F2FD1140
:10379400194800F031FA00233B6200237B6207F1F1
:1037A400200319461348FFF7F4F90346002B04D00D
:1037B4004FF40171104800F01FFA60237B6000236E
:1037C400BB600023FB6000237B613B1D0022194684
:1037D4000848FEF725FD0346002B04D040F20D21D6
:1037E400054800F009FA034800F0CCFB00BF383765
:1037F400BD4680BD4C030020D442000880B58EB085
:1038040000AF324B324A1A60304B00225A602F4BC1
:1038140000229A602D4B0022DA602C4B00221A61A0
:103824002A48FEF79CFC0346002B04D040F22321D7
:10383400284800F0E1F94FF48053BB6207F12803F4
:1038440019462248FEF7B2FD0346002B04D040F28D
:103854002921204800F0D0F91C48FEF7ABFC0346B0
:10386400002B04D040F22E211A4800F0C5F90023A1
:103874003B6200237B6207F1200319461348FFF7DC
:1038840088F90346002B04D040F23521114800F09A
:10389400B3F960237B600023BB600023FB6000233B
:1038A4007B613B1D002219460848FEF7B9FC03461C
:1038B400002B04D040F23E21064800F09DF9034855
:1038C40000F060FB00BF3837BD4680BD9C0100207E
:1038D40000040040D442000880B500AF124B134AE4
:1038E4001A60114B4FF4E1325A600F4B00229A6078
:1038F4000D4B0022DA600C4B00221A610A4B0C2299
:103904005A61094B00229A61074B0022DA6106488A
:10391400FFF7DDF90346002B04D040F2532104489D
:1039240000F06AF900BF80BD0C030020004C004089
:10393400D442000880B500AF124B134A1A60114BF1
:103944004FF4E1325A600F4B00229A600D4B002273
:10395400DA600C4B00221A610A4B0C225A61094BA3
:1039640000229A61074B0022DA610648FFF7AFF99B
:103974000346002B04D040F26621044800F03CF9D1
:1039840000BF80BD3402002000500040D442000833
:1039940080B500AF124B134A1A60114B4FF4E13259
:1039A4005A600F4B00229A600D4B0022DA600C4BD8
:1039B40000221A610A4B0C225A61094B00229A61B7
:1039C400074B0022DA610648FFF781F90346002B12
:1039D40004D040F27921044800F00EF900BF80BD04
:1039E4008C03002000440040D442000880B58AB013
:1039F40000AF00233B614F4B1B6B4E4A43F0040363
:103A040013634C4B1B6B03F004033B613B690023C2
:103A1400FB60484B1B6B474A43F080031363454BE1
:103A24001B6B03F08003FB60FB680023BB60414B0E
:103A34001B6B404A43F0010313633E4B1B6B03F0C3
:103A44000103BB60BB6800237B603A4B1B6B394AA4
:103A540043F002031363374B1B6B03F002037B60D9
:103A64007B6800233B60334B1B6B324A43F00803F3
:103A74001363304B1B6B03F008033B603B6800226D
:103A840020212D48FDF7D6FA00224FF440512B484F
:103A9400FDF7D0FA00224FF480712948FDF7CAFAE5
:103AA4004FF400537B61274BBB610023FB6107F19B
:103AB400140319462248FDF72BF920237B610123C7
:103AC400BB610023FB6100233B6207F11403194629
:103AD4001948FDF71DF94FF440537B610123BB6185
:103AE4000023FB6100233B6207F1140319461348CA
:103AF400FDF70EF94FF440437B610023BB610023C3
:103B0400FB6107F1140319460C48FDF701F94FF462
:103B140080737B610123BB610023FB6100233B6253
:103B240007F1140319460648FDF7F2F800BF2837D9
:103B3400BD4680BD0038024000000240000402403F
:103B4400000802400000211080B485B000AF786006
:103B54000B467B802A23BB810023FB810AE0FB897F
:103B64005B007A6813441A88BB891344BB81FB89C0
:103B74000133FB81FA897B889A42F0D3BB891846CA
:103B84001437BD465DF8047B7047000080B584B0EF
:103B940002AF00224FF400511348FDF74BFA0A23F9
:103BA40000930A23114A12491248FEF7B1F803465A
:103BB400FB7101224FF400510B48FDF73BFA012041
:103BC400FCF710FD04210948FFF7BEFF0346BB8044
:103BD400064B1B89BA889A4201D1002300E00123D5
:103BE40018460837BD4680BD0004024090010020FD
:103BF400280000203C00002080B483B000AF78602F
:103C04003960FEE780B582B000AF00237B60254BAE
:103C14005B6C244A43F480435364224B5B6C03F48F
:103C240080437B607B6800233B601E4B1B6C1D4AFA
:103C340043F0805313641B4B1B6C03F080533B60B5
:103C44003B680720FDF706F8002200216FF00B0007
:103C5400FDF70BF8002200216FF00A00FDF705F8CC
:103C6400002200216FF00900FCF7FFFF0022002171
:103C74006FF00400FCF7F9FF002200216FF003004D
:103C8400FCF7F3FF002200216FF00100FCF7EDFFC9
:103C9400002200214FF0FF30FCF7E7FF00BF083798
:103CA400BD4680BD0038024080B58AB000AF786060
:103CB4007B681B68204A93421AD100233B611F4B47
:103CC4005B6C1E4A43F4807353641C4B5B6C03F4BB
:103CD40080733B613B6910237B610323BB61002339
:103CE400FB6107F1140319461548FDF711F81EE0AE
:103CF4007B681B68134A934219D10023FB600F4B66
:103D04005B6C0E4A43F4007353640C4B5B6C03F41A
:103D14000073FB60FB6840237B610323BB610023CA
:103D2400FB6107F1140319460548FCF7F1FF00BFD6
:103D34002837BD4680BD00BF002001400038024046
:103D4400000002400021014080B58AB000AF7860D5
:103D54007B681B68244A93421ED1C0237B611223D3
:103D6400BB610123FB6103233B6204237B6207F1F4
:103D7400140319461D48FCF7CBFF00233B611C4B81
:103D84001B6C1B4A43F400131364194B1B6C03F4A0
:103D940000133B613B6923E07B681B68154A93422F
:103DA4001ED14FF481637B611223BB610123FB614C
:103DB40003233B6204237B6207F1140319460B4877
:103DC400FCF7A6FF0023FB60094B1B6C084A43F475
:103DD40080031364064B1B6C03F48003FB60FB68D5
:103DE40000BF2837BD4680BD005400400004024097
:103DF400003802400058004080B58AB000AF7860B7
:103E04007B681B68344A93422ED100233B61334BB9
:103E14001B6C324A43F480431364304B1B6C03F431
:103E240080433B613B6902237B610223BB61002326
:103E3400FB6103233B6207237B6207F114031946EA
:103E44002748FCF765FF84237B610223BB610023C1
:103E5400FB6103233B6205237B6207F114031946CC
:103E64001F48FCF755FF33E07B681B681D4A9342EB
:103E74002ED10023FB60194B1B6C184A43F40043FA
:103E84001364164B1B6C03F40043FB60FB680123B3
:103E94007B610223BB610023FB6103233B62072395
:103EA4007B6207F1140319460F48FCF731FF4FF406
:103EB40040637B610223BB610023FB6103233B62FC
:103EC40006237B6207F1140319460548FCF720FF1B
:103ED40000BF2837BD4680BD00380040003802408E
:103EE40000080240003C00400004024080B487B057
:103EF40000AF78607B681B681F4A93420ED1002391
:103F04007B611E4B5B6C1D4A43F0010353641B4BE6
:103F14005B6C03F001037B617B6926E07B681B68B3
:103F2400B3F1804F0ED100233B61144B1B6C134A39
:103F340043F001031364114B1B6C03F001033B6159
:103F44003B6912E07B681B680D4A93420DD1002344
:103F5400FB600A4B1B6C094A43F002031364074BD2
:103F64001B6C03F00203FB60FB6800BF1C37BD46FB
:103F74005DF8047B704700BF000001400038024038
:103F84000004004080B588B000AF78607B681B688F
:103F9400224A934211D14FF48073FB6002233B61A8
:103FA40000237B610023BB610123FB6107F10C0348
:103FB40019461B48FCF7ACFE2BE07B681B68B3F189
:103FC400804F11D14FF40043FB6002233B61002377
:103FD4007B610023BB610123FB6107F10C031946DC
:103FE4000F48FCF795FE14E07B681B680D4A93426A
:103FF4000FD14023FB6002233B6100237B6100233C
:10400400BB610223FB6107F10C0319460648FCF768
:104014007FFE00BF2037BD4680BD00BF00000140C9
:1040240000000240000400400008024080B58AB04D
:1040340000AF78607B681B683E4A93421ED1002320
:104044003B613D4B1B6C3C4A43F4002313643A4BE5
:104054001B6C03F400233B613B6903237B61022354
:10406400BB610123FB6103233B6208237B6207F1ED
:10407400140319463148FCF74BFE57E07B681B6874
:104084002F4A93422FD10023FB602B4B1B6C2A4AEF
:1040940043F480131364284B1B6C03F48013FB60FC
:1040A400FB684FF480537B610223BB610123FB61F6
:1040B40003233B6208237B6207F11403194621485A
:1040C400FCF726FE04237B610223BB610123FB6111
:1040D40003233B6208237B6207F1140319461A4841
:1040E400FCF716FE22E07B681B68184A93421DD138
:1040F4000023BB60104B1B6C0F4A43F40033136462
:104104000D4B1B6C03F40033BB60BB680C237B6159
:104114000223BB610123FB6103233B6207237B6210
:1041240007F1140319460548FCF7F2FD00BF2837D0
:10413400BD4680BD004C00400038024000000240F3
:104144000050004000080240000C024000440040BF
:1041540080B400AF00BFBD465DF8047B704780B4F7
:1041640000AFFEE780B400AFFEE780B400AFFEE727
:1041740080B400AFFEE780B400AF00BFBD465DF879
:10418400047B704780B400AF00BFBD465DF8047B7C
:10419400704780B400AF00BFBD465DF8047B704734
:1041A40080B500AFFCF7FEF9FCF7A4FD00BF80BDAD
:1041B40080B400AF164BD3F88830154A43F470032B
:1041C400C2F88830134B1B68124A43F00103136092
:1041D400104B00229A600F4B1B680E4A23F0847325
:1041E40023F4803313600B4B0B4A5A60094B1B6852
:1041F400084A23F480231360064B0022DA60044B40
:104204004FF000629A6000BFBD465DF8047B7047C2
:1042140000ED00E00038024010300024DFF834D014
:10422400002103E00C4B5B58435004310B480C4B0A
:1042340042189A42F6D30B4A02E0002342F8043BA8
:10424400094B9A42F9D3FFF7B3FF00F011F8FEF7D8
:10425400A7FF7047000002200C4300080000002064
:104264000C0000200C000020DC030020FEE700000E
:1042740070B50D4E0D4CA41BA4100025A54209D108
:104284000B4E0C4C00F018F8A41BA4100025A542FA
:1042940005D170BD56F8253098470135EEE756F83C
:1042A400253098470135F2E7044300080443000829
:1042B4000443000808430008F8B500BFF8BC08BC74
:1042C4009E467047F8B500BFF8BC08BC9E467047D0
:1042D4002E2E2F5372632F6D61696E2E63000000C2
:1042E40000000000000000000102030406070809A2
:0842F4000000000001020304B8
:0842FC0038BFFF7F0100000044
:04430400E9010008C3
:04430800C5010008E3
:0C430C0010000000010000000024F4007C
:04000005080042218C
:00000001FF
